{
  "contractName": "Will",
  "abi": [
    {
      "inputs": [],
      "stateMutability": "payable",
      "type": "constructor",
      "payable": true
    },
    {
      "inputs": [
        {
          "internalType": "address payable",
          "name": "wallet",
          "type": "address"
        },
        {
          "internalType": "uint256",
          "name": "amount",
          "type": "uint256"
        }
      ],
      "name": "setInheritance",
      "outputs": [],
      "stateMutability": "payable",
      "type": "function",
      "payable": true
    },
    {
      "inputs": [],
      "name": "setToDeceased",
      "outputs": [],
      "stateMutability": "nonpayable",
      "type": "function"
    }
  ],
  "bytecode": "0x6080604052336000806101000a81548173ffffffffffffffffffffffffffffffffffffffff021916908373ffffffffffffffffffffffffffffffffffffffff1602179055503460018190555060008060146101000a81548160ff0219169083151502179055506104de806100746000396000f3fe6080604052600436106100295760003560e01c806388d515941461002e578063ed8e22751461004a575b600080fd5b610048600480360381019061004391906103c2565b610061565b005b34801561005657600080fd5b5061005f610164565b005b3373ffffffffffffffffffffffffffffffffffffffff1660008054906101000a900473ffffffffffffffffffffffffffffffffffffffff1673ffffffffffffffffffffffffffffffffffffffff16146100b957600080fd5b6002829080600181540180825580915050600190039060005260206000200160009091909190916101000a81548173ffffffffffffffffffffffffffffffffffffffff021916908373ffffffffffffffffffffffffffffffffffffffff16021790555080600360008473ffffffffffffffffffffffffffffffffffffffff1673ffffffffffffffffffffffffffffffffffffffff168152602001908152602001600020819055505050565b3373ffffffffffffffffffffffffffffffffffffffff1660008054906101000a900473ffffffffffffffffffffffffffffffffffffffff1673ffffffffffffffffffffffffffffffffffffffff16146101bc57600080fd5b6001600060146101000a81548160ff0219169083151502179055506101df6101e1565b565b60011515600060149054906101000a900460ff1615151461020157600080fd5b60005b600280549050811015610326576002818154811061022557610224610402565b5b9060005260206000200160009054906101000a900473ffffffffffffffffffffffffffffffffffffffff1673ffffffffffffffffffffffffffffffffffffffff166108fc600360006002858154811061028157610280610402565b5b9060005260206000200160009054906101000a900473ffffffffffffffffffffffffffffffffffffffff1673ffffffffffffffffffffffffffffffffffffffff1673ffffffffffffffffffffffffffffffffffffffff168152602001908152602001600020549081150290604051600060405180830381858888f19350505050158015610312573d6000803e3d6000fd5b50808061031e90610460565b915050610204565b50565b600080fd5b600073ffffffffffffffffffffffffffffffffffffffff82169050919050565b60006103598261032e565b9050919050565b6103698161034e565b811461037457600080fd5b50565b60008135905061038681610360565b92915050565b6000819050919050565b61039f8161038c565b81146103aa57600080fd5b50565b6000813590506103bc81610396565b92915050565b600080604083850312156103d9576103d8610329565b5b60006103e785828601610377565b92505060206103f8858286016103ad565b9150509250929050565b7f4e487b7100000000000000000000000000000000000000000000000000000000600052603260045260246000fd5b7f4e487b7100000000000000000000000000000000000000000000000000000000600052601160045260246000fd5b600061046b8261038c565b91507fffffffffffffffffffffffffffffffffffffffffffffffffffffffffffffffff820361049d5761049c610431565b5b60018201905091905056fea2646970667358221220656e584b8a0f8d6cfc0a359e452091747d20360423a127058ea52db0b11061cf64736f6c63430008110033",
  "immutableReferences": {},
  "source": "// SPDX-License-Identifier: MIT\r\npragma solidity >=0.8;\r\ncontract Will{\r\naddress owner;\r\nbool deceased;\r\nuint fortune;\r\nconstructor()payable {\r\n    owner=msg.sender;\r\n    fortune=msg.value;\r\n    deceased=false;\r\n\r\n}\r\nmodifier onlyOnwer {\r\n    require(owner==msg.sender);\r\n    _;\r\n}\r\nmodifier mustBeDeceased{\r\n    require(deceased==true);\r\n    _;\r\n}\r\naddress payable [] familyWallets;\r\nmapping(address =>uint) inheritance;\r\nfunction setInheritance(address payable  wallet, uint amount) public payable onlyOnwer {\r\n    familyWallets.push(wallet);\r\n    inheritance[wallet]=amount;\r\n\r\n}\r\nfunction payout() private mustBeDeceased{\r\n\r\n    for(uint i=0;i<familyWallets.length;i++){\r\n        familyWallets[i].transfer(inheritance[familyWallets[i]]);\r\n    }\r\n}\r\nfunction setToDeceased() public  onlyOnwer{\r\n    deceased=true;\r\n    payout();\r\n}\r\n\r\n}",
  "sourcePath": "C:\\Users\\Engr M2j\\Documents\\Desktop\\All-Solidity-Projects\\inheritance\\contracts\\Will.sol",
  "compiler": {
    "name": "solc",
    "version": "0.8.17+commit.8df45f5f.Emscripten.clang"
  },
  "schemaVersion": "3.4.16",
  "updatedAt": "2023-12-03T07:46:49.158Z",
  "networkType": "ethereum",
  "devdoc": {
    "kind": "dev",
    "methods": {},
    "version": 1
  },
  "userdoc": {
    "kind": "user",
    "methods": {},
    "version": 1
  }
}